{
  "_format": "hh-sol-artifact-1",
  "contractName": "Faucet",
  "sourceName": "contracts/Faucet.sol",
  "abi": [
    {
      "anonymous": false,
      "inputs": [
        {
          "indexed": true,
          "internalType": "address",
          "name": "_address",
          "type": "address"
        },
        {
          "indexed": false,
          "internalType": "uint256",
          "name": "_amount",
          "type": "uint256"
        }
      ],
      "name": "Funded",
      "type": "event"
    },
    {
      "anonymous": false,
      "inputs": [
        {
          "indexed": false,
          "internalType": "uint8",
          "name": "version",
          "type": "uint8"
        }
      ],
      "name": "Initialized",
      "type": "event"
    },
    {
      "inputs": [],
      "name": "amount",
      "outputs": [
        {
          "internalType": "uint256",
          "name": "",
          "type": "uint256"
        }
      ],
      "stateMutability": "view",
      "type": "function"
    },
    {
      "inputs": [],
      "name": "balance",
      "outputs": [
        {
          "internalType": "uint256",
          "name": "",
          "type": "uint256"
        }
      ],
      "stateMutability": "view",
      "type": "function"
    },
    {
      "inputs": [],
      "name": "deposit",
      "outputs": [],
      "stateMutability": "payable",
      "type": "function"
    },
    {
      "inputs": [],
      "name": "frequency",
      "outputs": [
        {
          "internalType": "uint32",
          "name": "",
          "type": "uint32"
        }
      ],
      "stateMutability": "view",
      "type": "function"
    },
    {
      "inputs": [
        {
          "internalType": "address",
          "name": "_to",
          "type": "address"
        }
      ],
      "name": "fund",
      "outputs": [],
      "stateMutability": "nonpayable",
      "type": "function"
    },
    {
      "inputs": [
        {
          "internalType": "address",
          "name": "_rolesAddr",
          "type": "address"
        },
        {
          "internalType": "uint256",
          "name": "_amount",
          "type": "uint256"
        },
        {
          "internalType": "uint32",
          "name": "_frequency",
          "type": "uint32"
        }
      ],
      "name": "initialize",
      "outputs": [],
      "stateMutability": "nonpayable",
      "type": "function"
    },
    {
      "inputs": [
        {
          "internalType": "uint256",
          "name": "_amount",
          "type": "uint256"
        }
      ],
      "name": "setAmount",
      "outputs": [],
      "stateMutability": "nonpayable",
      "type": "function"
    },
    {
      "inputs": [
        {
          "internalType": "uint32",
          "name": "_frequency",
          "type": "uint32"
        }
      ],
      "name": "setFrequency",
      "outputs": [],
      "stateMutability": "nonpayable",
      "type": "function"
    },
    {
      "inputs": [],
      "name": "withdraw",
      "outputs": [],
      "stateMutability": "nonpayable",
      "type": "function"
    }
  ],
  "bytecode": "0x608060405234801561001057600080fd5b506108ad806100206000396000f3fe6080604052600436106100865760003560e01c8063aa8c217c11610059578063aa8c217c14610102578063b69ef8a81461012b578063d0e30db01461013e578063ead50da314610146578063ee79d32e1461017857610086565b8063230244081461008b578063271f88b4146100ad5780633ccfd60b146100cd5780636c5ac81e146100e2575b600080fd5b34801561009757600080fd5b506100ab6100a6366004610789565b610198565b005b3480156100b957600080fd5b506100ab6100c8366004610805565b61031d565b3480156100d957600080fd5b506100ab6103c7565b3480156100ee57600080fd5b506100ab6100fd3660046107aa565b61049b565b34801561010e57600080fd5b5061011860355481565b6040519081526020015b60405180910390f35b34801561013757600080fd5b5047610118565b6100ab6105e3565b34801561015257600080fd5b506036546101639063ffffffff1681565b60405163ffffffff9091168152602001610122565b34801561018457600080fd5b506100ab61019336600461081d565b61068a565b6001600160a01b038116600090815260336020526040902054439015806101ec57506036546001600160a01b03831660009081526033602052604090205463ffffffff909116906101e99083610854565b10155b61023d5760405162461bcd60e51b815260206004820181905260248201527f4164647265737320686173206265656e2066756e64656420726563656e746c7960448201526064015b60405180910390fd5b603554471161028e5760405162461bcd60e51b815260206004820152601c60248201527f496e73756666696369656e742066756e647320696e20666175636574000000006044820152606401610234565b6001600160a01b038216600081815260336020526040808220849055603554905181156108fc0292818181858888f193505050501580156102d3573d6000803e3d6000fd5b50816001600160a01b03167f5af8184bef8e4b45eb9f6ed7734d04da38ced226495548f46e0c8ff8d7d9a52460355460405161031191815260200190565b60405180910390a25050565b6034546001600160a01b03166324d7806c336040516001600160e01b031960e084901b1681526001600160a01b03909116600482015260240160206040518083038186803b15801561036e57600080fd5b505afa158015610382573d6000803e3d6000fd5b505050506040513d601f19601f820116820180604052508101906103a691906107e5565b6103c25760405162461bcd60e51b815260040161023490610837565b603555565b6034546001600160a01b03166324d7806c336040516001600160e01b031960e084901b1681526001600160a01b03909116600482015260240160206040518083038186803b15801561041857600080fd5b505afa15801561042c573d6000803e3d6000fd5b505050506040513d601f19601f8201168201806040525081019061045091906107e5565b61046c5760405162461bcd60e51b815260040161023490610837565b60405133904780156108fc02916000818181858888f19350505050158015610498573d6000803e3d6000fd5b50565b600054610100900460ff16158080156104bb5750600054600160ff909116105b806104dc57506104ca3061074b565b1580156104dc575060005460ff166001145b61053f5760405162461bcd60e51b815260206004820152602e60248201527f496e697469616c697a61626c653a20636f6e747261637420697320616c72656160448201526d191e481a5b9a5d1a585b1a5e995960921b6064820152608401610234565b6000805460ff191660011790558015610562576000805461ff0019166101001790555b603480546001600160a01b0319166001600160a01b0386161790556036805463ffffffff191663ffffffff8416179055603583905580156105dd576000805461ff0019169055604051600181527f7f26b83ff96e1f2b6a682f133852f6798a09c465da95921460cefb38474024989060200160405180910390a15b50505050565b6034546001600160a01b03166324d7806c336040516001600160e01b031960e084901b1681526001600160a01b03909116600482015260240160206040518083038186803b15801561063457600080fd5b505afa158015610648573d6000803e3d6000fd5b505050506040513d601f19601f8201168201806040525081019061066c91906107e5565b6106885760405162461bcd60e51b815260040161023490610837565b565b6034546001600160a01b03166324d7806c336040516001600160e01b031960e084901b1681526001600160a01b03909116600482015260240160206040518083038186803b1580156106db57600080fd5b505afa1580156106ef573d6000803e3d6000fd5b505050506040513d601f19601f8201168201806040525081019061071391906107e5565b61072f5760405162461bcd60e51b815260040161023490610837565b6036805463ffffffff191663ffffffff92909216919091179055565b6001600160a01b0381163b15155b919050565b80356001600160a01b038116811461075957600080fd5b803563ffffffff8116811461075957600080fd5b60006020828403121561079a578081fd5b6107a38261075e565b9392505050565b6000806000606084860312156107be578182fd5b6107c78461075e565b9250602084013591506107dc60408501610775565b90509250925092565b6000602082840312156107f6578081fd5b815180151581146107a3578182fd5b600060208284031215610816578081fd5b5035919050565b60006020828403121561082e578081fd5b6107a382610775565b60208082526003908201526234303160e81b604082015260600190565b60008282101561087257634e487b7160e01b81526011600452602481fd5b50039056fea2646970667358221220063089cbe8d3c36690e3b4140db52b91f6b8d7dd4085f7e83d7ebf6f48b8a9ad64736f6c63430008020033",
  "linkReferences": {},
  "deployedLinkReferences": {}
}