{
  "_format": "hh-sol-artifact-1",
  "contractName": "ProjectTest",
  "sourceName": "contracts/Project.sol",
  "abi": [
    {
      "inputs": [
        {
          "internalType": "address",
          "name": "receiver",
          "type": "address"
        },
        {
          "internalType": "uint256",
          "name": "amount",
          "type": "uint256"
        }
      ],
      "stateMutability": "nonpayable",
      "type": "constructor"
    },
    {
      "anonymous": false,
      "inputs": [
        {
          "indexed": true,
          "internalType": "bytes32",
          "name": "role",
          "type": "bytes32"
        },
        {
          "indexed": true,
          "internalType": "bytes32",
          "name": "previousAdminRole",
          "type": "bytes32"
        },
        {
          "indexed": true,
          "internalType": "bytes32",
          "name": "newAdminRole",
          "type": "bytes32"
        }
      ],
      "name": "RoleAdminChanged",
      "type": "event"
    },
    {
      "anonymous": false,
      "inputs": [
        {
          "indexed": true,
          "internalType": "bytes32",
          "name": "role",
          "type": "bytes32"
        },
        {
          "indexed": true,
          "internalType": "address",
          "name": "account",
          "type": "address"
        },
        {
          "indexed": true,
          "internalType": "address",
          "name": "sender",
          "type": "address"
        }
      ],
      "name": "RoleGranted",
      "type": "event"
    },
    {
      "anonymous": false,
      "inputs": [
        {
          "indexed": true,
          "internalType": "bytes32",
          "name": "role",
          "type": "bytes32"
        },
        {
          "indexed": true,
          "internalType": "address",
          "name": "account",
          "type": "address"
        },
        {
          "indexed": true,
          "internalType": "address",
          "name": "sender",
          "type": "address"
        }
      ],
      "name": "RoleRevoked",
      "type": "event"
    },
    {
      "anonymous": false,
      "inputs": [
        {
          "indexed": true,
          "internalType": "uint256",
          "name": "indexedProjectId",
          "type": "uint256"
        },
        {
          "indexed": false,
          "internalType": "uint256",
          "name": "projectId",
          "type": "uint256"
        },
        {
          "indexed": true,
          "internalType": "address",
          "name": "creator",
          "type": "address"
        },
        {
          "indexed": false,
          "internalType": "uint256",
          "name": "amount",
          "type": "uint256"
        }
      ],
      "name": "Submitted",
      "type": "event"
    },
    {
      "inputs": [],
      "name": "ADMIN_ROLE",
      "outputs": [
        {
          "internalType": "bytes32",
          "name": "",
          "type": "bytes32"
        }
      ],
      "stateMutability": "view",
      "type": "function"
    },
    {
      "inputs": [],
      "name": "DEFAULT_ADMIN_ROLE",
      "outputs": [
        {
          "internalType": "bytes32",
          "name": "",
          "type": "bytes32"
        }
      ],
      "stateMutability": "view",
      "type": "function"
    },
    {
      "inputs": [],
      "name": "USER_ROLE",
      "outputs": [
        {
          "internalType": "bytes32",
          "name": "",
          "type": "bytes32"
        }
      ],
      "stateMutability": "view",
      "type": "function"
    },
    {
      "inputs": [],
      "name": "USER_WALLET",
      "outputs": [
        {
          "internalType": "bytes32",
          "name": "",
          "type": "bytes32"
        }
      ],
      "stateMutability": "view",
      "type": "function"
    },
    {
      "inputs": [],
      "name": "balance",
      "outputs": [
        {
          "internalType": "uint256",
          "name": "",
          "type": "uint256"
        }
      ],
      "stateMutability": "view",
      "type": "function"
    },
    {
      "inputs": [],
      "name": "config",
      "outputs": [
        {
          "internalType": "uint256",
          "name": "amount",
          "type": "uint256"
        }
      ],
      "stateMutability": "view",
      "type": "function"
    },
    {
      "inputs": [],
      "name": "getAddressCheck",
      "outputs": [
        {
          "internalType": "address",
          "name": "",
          "type": "address"
        }
      ],
      "stateMutability": "view",
      "type": "function"
    },
    {
      "inputs": [],
      "name": "getBalanceCheck",
      "outputs": [
        {
          "internalType": "uint256",
          "name": "",
          "type": "uint256"
        }
      ],
      "stateMutability": "view",
      "type": "function"
    },
    {
      "inputs": [],
      "name": "getMsgSender",
      "outputs": [
        {
          "internalType": "address",
          "name": "",
          "type": "address"
        }
      ],
      "stateMutability": "view",
      "type": "function"
    },
    {
      "inputs": [
        {
          "internalType": "bytes32",
          "name": "role",
          "type": "bytes32"
        }
      ],
      "name": "getRoleAdmin",
      "outputs": [
        {
          "internalType": "bytes32",
          "name": "",
          "type": "bytes32"
        }
      ],
      "stateMutability": "view",
      "type": "function"
    },
    {
      "inputs": [
        {
          "internalType": "bytes32",
          "name": "role",
          "type": "bytes32"
        },
        {
          "internalType": "address",
          "name": "account",
          "type": "address"
        }
      ],
      "name": "grantRole",
      "outputs": [],
      "stateMutability": "nonpayable",
      "type": "function"
    },
    {
      "inputs": [
        {
          "internalType": "bytes32",
          "name": "role",
          "type": "bytes32"
        },
        {
          "internalType": "address",
          "name": "account",
          "type": "address"
        }
      ],
      "name": "hasRole",
      "outputs": [
        {
          "internalType": "bool",
          "name": "",
          "type": "bool"
        }
      ],
      "stateMutability": "view",
      "type": "function"
    },
    {
      "inputs": [
        {
          "internalType": "address",
          "name": "userAddress",
          "type": "address"
        }
      ],
      "name": "isAdmin",
      "outputs": [
        {
          "internalType": "bool",
          "name": "",
          "type": "bool"
        }
      ],
      "stateMutability": "view",
      "type": "function"
    },
    {
      "inputs": [
        {
          "internalType": "uint256",
          "name": "projectId",
          "type": "uint256"
        }
      ],
      "name": "isProjectExist",
      "outputs": [
        {
          "internalType": "uint256",
          "name": "",
          "type": "uint256"
        }
      ],
      "stateMutability": "view",
      "type": "function"
    },
    {
      "inputs": [
        {
          "internalType": "address",
          "name": "userAddress",
          "type": "address"
        }
      ],
      "name": "isUser",
      "outputs": [
        {
          "internalType": "bool",
          "name": "",
          "type": "bool"
        }
      ],
      "stateMutability": "view",
      "type": "function"
    },
    {
      "inputs": [],
      "name": "price",
      "outputs": [
        {
          "internalType": "uint256",
          "name": "",
          "type": "uint256"
        }
      ],
      "stateMutability": "view",
      "type": "function"
    },
    {
      "inputs": [
        {
          "internalType": "uint256",
          "name": "",
          "type": "uint256"
        }
      ],
      "name": "projects",
      "outputs": [
        {
          "internalType": "uint256",
          "name": "id",
          "type": "uint256"
        },
        {
          "internalType": "address",
          "name": "creator",
          "type": "address"
        },
        {
          "internalType": "string",
          "name": "name",
          "type": "string"
        },
        {
          "internalType": "bool",
          "name": "isActive",
          "type": "bool"
        },
        {
          "internalType": "string",
          "name": "description",
          "type": "string"
        }
      ],
      "stateMutability": "view",
      "type": "function"
    },
    {
      "inputs": [
        {
          "internalType": "bytes32",
          "name": "role",
          "type": "bytes32"
        },
        {
          "internalType": "address",
          "name": "account",
          "type": "address"
        }
      ],
      "name": "renounceRole",
      "outputs": [],
      "stateMutability": "nonpayable",
      "type": "function"
    },
    {
      "inputs": [
        {
          "internalType": "bytes32",
          "name": "role",
          "type": "bytes32"
        },
        {
          "internalType": "address",
          "name": "account",
          "type": "address"
        }
      ],
      "name": "revokeRole",
      "outputs": [],
      "stateMutability": "nonpayable",
      "type": "function"
    },
    {
      "inputs": [
        {
          "internalType": "uint256",
          "name": "projectId",
          "type": "uint256"
        }
      ],
      "name": "setActivetedProject",
      "outputs": [],
      "stateMutability": "nonpayable",
      "type": "function"
    },
    {
      "inputs": [
        {
          "internalType": "address",
          "name": "userAddress",
          "type": "address"
        }
      ],
      "name": "setRoleAdmin",
      "outputs": [],
      "stateMutability": "nonpayable",
      "type": "function"
    },
    {
      "inputs": [
        {
          "internalType": "address",
          "name": "userAddress",
          "type": "address"
        }
      ],
      "name": "setRoleUser",
      "outputs": [],
      "stateMutability": "nonpayable",
      "type": "function"
    },
    {
      "inputs": [
        {
          "internalType": "string",
          "name": "name",
          "type": "string"
        }
      ],
      "name": "submitProject",
      "outputs": [],
      "stateMutability": "payable",
      "type": "function"
    },
    {
      "inputs": [
        {
          "internalType": "bytes4",
          "name": "interfaceId",
          "type": "bytes4"
        }
      ],
      "name": "supportsInterface",
      "outputs": [
        {
          "internalType": "bool",
          "name": "",
          "type": "bool"
        }
      ],
      "stateMutability": "view",
      "type": "function"
    },
    {
      "inputs": [],
      "name": "wallet",
      "outputs": [
        {
          "internalType": "address",
          "name": "receiver",
          "type": "address"
        }
      ],
      "stateMutability": "view",
      "type": "function"
    }
  ],
  "bytecode": "0x60806040523480156200001157600080fd5b50604051620029ee380380620029ee8339818101604052810190620000379190620006a9565b6200004c6000801b336200010660201b60201c565b6200007e7fdf8b4c520ffe197c5343c6f5aec59570151ef9a492f2c624fd45ddde6135ec4233620001f760201b60201c565b620000b07f46a31f1f917570aa8a60b2339f1a0469cbce2feb53c705746446981548845b3b83620001f760201b60201c565b81600660000160006101000a81548173ffffffffffffffffffffffffffffffffffffffff021916908373ffffffffffffffffffffffffffffffffffffffff16021790555080600760000181905550505062000ac8565b6200011882826200023060201b60201c565b620001f357600160008084815260200190815260200160002060000160008373ffffffffffffffffffffffffffffffffffffffff1673ffffffffffffffffffffffffffffffffffffffff16815260200190815260200160002060006101000a81548160ff021916908315150217905550620001986200029a60201b60201c565b73ffffffffffffffffffffffffffffffffffffffff168173ffffffffffffffffffffffffffffffffffffffff16837f2f8788117e7eff1d82e926ec794901d17c78024a50270940304540a733656f0d60405160405180910390a45b5050565b6200020882620002a260201b60201c565b6200021981620002c160201b60201c565b6200022b83836200010660201b60201c565b505050565b600080600084815260200190815260200160002060000160008373ffffffffffffffffffffffffffffffffffffffff1673ffffffffffffffffffffffffffffffffffffffff16815260200190815260200160002060009054906101000a900460ff16905092915050565b600033905090565b6000806000838152602001908152602001600020600101549050919050565b620002e281620002d66200029a60201b60201c565b620002e560201b60201c565b50565b620002f782826200023060201b60201c565b620003a5576200032a8173ffffffffffffffffffffffffffffffffffffffff166014620003a960201b62000eb21760201c565b620003458360001c6020620003a960201b62000eb21760201c565b6040516020016200035892919062000813565b6040516020818303038152906040526040517f08c379a00000000000000000000000000000000000000000000000000000000081526004016200039c9190620008b8565b60405180910390fd5b5050565b606060006002836002620003be91906200090b565b620003ca91906200096c565b67ffffffffffffffff811115620003e657620003e5620009c9565b5b6040519080825280601f01601f191660200182016040528015620004195781602001600182028036833780820191505090505b5090507f300000000000000000000000000000000000000000000000000000000000000081600081518110620004545762000453620009f8565b5b60200101907effffffffffffffffffffffffffffffffffffffffffffffffffffffffffffff1916908160001a9053507f780000000000000000000000000000000000000000000000000000000000000081600181518110620004bb57620004ba620009f8565b5b60200101907effffffffffffffffffffffffffffffffffffffffffffffffffffffffffffff1916908160001a90535060006001846002620004fd91906200090b565b6200050991906200096c565b90505b6001811115620005b3577f3031323334353637383961626364656600000000000000000000000000000000600f8616601081106200054f576200054e620009f8565b5b1a60f81b828281518110620005695762000568620009f8565b5b60200101907effffffffffffffffffffffffffffffffffffffffffffffffffffffffffffff1916908160001a905350600485901c945080620005ab9062000a27565b90506200050c565b5060008414620005fa576040517f08c379a0000000000000000000000000000000000000000000000000000000008152600401620005f19062000aa6565b60405180910390fd5b8091505092915050565b600080fd5b600073ffffffffffffffffffffffffffffffffffffffff82169050919050565b6000620006368262000609565b9050919050565b620006488162000629565b81146200065457600080fd5b50565b60008151905062000668816200063d565b92915050565b6000819050919050565b62000683816200066e565b81146200068f57600080fd5b50565b600081519050620006a38162000678565b92915050565b60008060408385031215620006c357620006c262000604565b5b6000620006d38582860162000657565b9250506020620006e68582860162000692565b9150509250929050565b600081905092915050565b7f416363657373436f6e74726f6c3a206163636f756e7420000000000000000000600082015250565b600062000733601783620006f0565b91506200074082620006fb565b601782019050919050565b600081519050919050565b60005b838110156200077657808201518184015260208101905062000759565b8381111562000786576000848401525b50505050565b600062000799826200074b565b620007a58185620006f0565b9350620007b781856020860162000756565b80840191505092915050565b7f206973206d697373696e6720726f6c6520000000000000000000000000000000600082015250565b6000620007fb601183620006f0565b91506200080882620007c3565b601182019050919050565b6000620008208262000724565b91506200082e82856200078c565b91506200083b82620007ec565b91506200084982846200078c565b91508190509392505050565b600082825260208201905092915050565b6000601f19601f8301169050919050565b600062000884826200074b565b62000890818562000855565b9350620008a281856020860162000756565b620008ad8162000866565b840191505092915050565b60006020820190508181036000830152620008d4818462000877565b905092915050565b7f4e487b7100000000000000000000000000000000000000000000000000000000600052601160045260246000fd5b600062000918826200066e565b915062000925836200066e565b9250817fffffffffffffffffffffffffffffffffffffffffffffffffffffffffffffffff0483118215151615620009615762000960620008dc565b5b828202905092915050565b600062000979826200066e565b915062000986836200066e565b9250827fffffffffffffffffffffffffffffffffffffffffffffffffffffffffffffffff03821115620009be57620009bd620008dc565b5b828201905092915050565b7f4e487b7100000000000000000000000000000000000000000000000000000000600052604160045260246000fd5b7f4e487b7100000000000000000000000000000000000000000000000000000000600052603260045260246000fd5b600062000a34826200066e565b9150600082141562000a4b5762000a4a620008dc565b5b600182039050919050565b7f537472696e67733a20686578206c656e67746820696e73756666696369656e74600082015250565b600062000a8e60208362000855565b915062000a9b8262000a56565b602082019050919050565b6000602082019050818103600083015262000ac18162000a7f565b9050919050565b611f168062000ad86000396000f3fe6080604052600436106101665760003560e01c806375b238fc116100d1578063a035b1fe1161008a578063b3be552911610064578063b3be55291461055f578063b69ef8a814610588578063d547741f146105b3578063db48a0dc146105dc57610166565b8063a035b1fe146104de578063a217fddf14610509578063af265e361461053457610166565b806375b238fc146103d957806379502c55146104045780637a6ce2e11461042f578063832cc51f1461045a57806386eb6f6e1461047657806391d14854146104a157610166565b806324d7806c1161012357806324d7806c146102a55780632f2ff15d146102e25780633546ffe21461030b57806336568abe146103485780634209fff114610371578063521eb273146103ae57610166565b806301ffc9a71461016b5780630950e722146101a8578063107046bd146101d357806313119161146102145780631ed8a8731461023f578063248a9ca314610268575b600080fd5b34801561017757600080fd5b50610192600480360381019061018d9190611505565b610605565b60405161019f919061154d565b60405180910390f35b3480156101b457600080fd5b506101bd61067f565b6040516101ca9190611581565b60405180910390f35b3480156101df57600080fd5b506101fa60048036038101906101f591906115c8565b610689565b60405161020b9594939291906116cf565b60405180910390f35b34801561022057600080fd5b506102296107fc565b6040516102369190611749565b60405180910390f35b34801561024b57600080fd5b50610266600480360381019061026191906115c8565b610820565b005b34801561027457600080fd5b5061028f600480360381019061028a9190611790565b610858565b60405161029c9190611749565b60405180910390f35b3480156102b157600080fd5b506102cc60048036038101906102c791906117e9565b610877565b6040516102d9919061154d565b60405180910390f35b3480156102ee57600080fd5b5061030960048036038101906103049190611816565b6108aa565b005b34801561031757600080fd5b50610332600480360381019061032d91906115c8565b6108cb565b60405161033f9190611581565b60405180910390f35b34801561035457600080fd5b5061036f600480360381019061036a9190611816565b6108f0565b005b34801561037d57600080fd5b50610398600480360381019061039391906117e9565b610973565b6040516103a5919061154d565b60405180910390f35b3480156103ba57600080fd5b506103c36109a6565b6040516103d09190611856565b60405180910390f35b3480156103e557600080fd5b506103ee6109d2565b6040516103fb9190611749565b60405180910390f35b34801561041057600080fd5b506104196109f6565b6040516104269190611581565b60405180910390f35b34801561043b57600080fd5b50610444610a02565b6040516104519190611856565b60405180910390f35b610474600480360381019061046f91906119a6565b610a95565b005b34801561048257600080fd5b5061048b610d6a565b6040516104989190611749565b60405180910390f35b3480156104ad57600080fd5b506104c860048036038101906104c39190611816565b610d8e565b6040516104d5919061154d565b60405180910390f35b3480156104ea57600080fd5b506104f3610df8565b6040516105009190611581565b60405180910390f35b34801561051557600080fd5b5061051e610dfe565b60405161052b9190611749565b60405180910390f35b34801561054057600080fd5b50610549610e05565b6040516105569190611856565b60405180910390f35b34801561056b57600080fd5b50610586600480360381019061058191906117e9565b610e2f565b005b34801561059457600080fd5b5061059d610e5c565b6040516105aa9190611581565b60405180910390f35b3480156105bf57600080fd5b506105da60048036038101906105d59190611816565b610e64565b005b3480156105e857600080fd5b5061060360048036038101906105fe91906117e9565b610e85565b005b60007f7965db0b000000000000000000000000000000000000000000000000000000007bffffffffffffffffffffffffffffffffffffffffffffffffffffffff1916827bffffffffffffffffffffffffffffffffffffffffffffffffffffffff191614806106785750610677826110ee565b5b9050919050565b6000600254905090565b60086020528060005260406000206000915090508060000154908060010160009054906101000a900473ffffffffffffffffffffffffffffffffffffffff16908060020180546106d890611a1e565b80601f016020809104026020016040519081016040528092919081815260200182805461070490611a1e565b80156107515780601f1061072657610100808354040283529160200191610751565b820191906000526020600020905b81548152906001019060200180831161073457829003601f168201915b5050505050908060030160009054906101000a900460ff169080600401805461077990611a1e565b80601f01602080910402602001604051908101604052809291908181526020018280546107a590611a1e565b80156107f25780601f106107c7576101008083540402835291602001916107f2565b820191906000526020600020905b8154815290600101906020018083116107d557829003601f168201915b5050505050905085565b7f2db9fd3d099848027c2383d0a083396f6c41510d7acfd92adc99b6cffcf31e9681565b600060086000838152602001908152602001600020905060008160030160006101000a81548160ff0219169083151502179055505050565b6000806000838152602001908152602001600020600101549050919050565b60006108a37fdf8b4c520ffe197c5343c6f5aec59570151ef9a492f2c624fd45ddde6135ec4283610d8e565b9050919050565b6108b382610858565b6108bc81611158565b6108c6838361116c565b505050565b6000806008600084815260200190815260200160002090508060000154915050919050565b6108f861124c565b73ffffffffffffffffffffffffffffffffffffffff168173ffffffffffffffffffffffffffffffffffffffff1614610965576040517f08c379a000000000000000000000000000000000000000000000000000000000815260040161095c90611ac2565b60405180910390fd5b61096f8282611254565b5050565b600061099f7f2db9fd3d099848027c2383d0a083396f6c41510d7acfd92adc99b6cffcf31e9683610d8e565b9050919050565b60068060000160009054906101000a900473ffffffffffffffffffffffffffffffffffffffff16905081565b7fdf8b4c520ffe197c5343c6f5aec59570151ef9a492f2c624fd45ddde6135ec4281565b60078060000154905081565b6000610a2e7fdf8b4c520ffe197c5343c6f5aec59570151ef9a492f2c624fd45ddde6135ec4233610d8e565b610a6d576040517f08c379a0000000000000000000000000000000000000000000000000000000008152600401610a6490611b2e565b60405180910390fd5b600460009054906101000a900473ffffffffffffffffffffffffffffffffffffffff16905090565b3460076000015414610adc576040517f08c379a0000000000000000000000000000000000000000000000000000000008152600401610ad390611b9a565b60405180910390fd5b3460028190555033600360006101000a81548173ffffffffffffffffffffffffffffffffffffffff021916908373ffffffffffffffffffffffffffffffffffffffff160217905550610b2c61124c565b600460006101000a81548173ffffffffffffffffffffffffffffffffffffffff021916908373ffffffffffffffffffffffffffffffffffffffff1602179055506000610b786001611335565b9050610b846001611343565b6040518060a001604052808281526020013373ffffffffffffffffffffffffffffffffffffffff168152602001838152602001600015158152602001604051806060016040528060298152602001611eb860299139815250600860008381526020019081526020016000206000820151816000015560208201518160010160006101000a81548173ffffffffffffffffffffffffffffffffffffffff021916908373ffffffffffffffffffffffffffffffffffffffff1602179055506040820151816002019080519060200190610c5c9291906113f6565b5060608201518160030160006101000a81548160ff0219169083151502179055506080820151816004019080519060200190610c999291906113f6565b50905050600660000160009054906101000a900473ffffffffffffffffffffffffffffffffffffffff1673ffffffffffffffffffffffffffffffffffffffff166108fc349081150290604051600060405180830381858888f19350505050158015610d08573d6000803e3d6000fd5b50610d1161124c565b73ffffffffffffffffffffffffffffffffffffffff16817fe8288ffdba7e3b27974100cffeb3698fccef24e1e875343ef43ce5c2c6f769c983600760000154604051610d5e929190611bba565b60405180910390a35050565b7f46a31f1f917570aa8a60b2339f1a0469cbce2feb53c705746446981548845b3b81565b600080600084815260200190815260200160002060000160008373ffffffffffffffffffffffffffffffffffffffff1673ffffffffffffffffffffffffffffffffffffffff16815260200190815260200160002060009054906101000a900460ff16905092915050565b60055481565b6000801b81565b6000600360009054906101000a900473ffffffffffffffffffffffffffffffffffffffff16905090565b610e597fdf8b4c520ffe197c5343c6f5aec59570151ef9a492f2c624fd45ddde6135ec42826108aa565b50565b600047905090565b610e6d82610858565b610e7681611158565b610e808383611254565b505050565b610eaf7f2db9fd3d099848027c2383d0a083396f6c41510d7acfd92adc99b6cffcf31e96826108aa565b50565b606060006002836002610ec59190611c12565b610ecf9190611c6c565b67ffffffffffffffff811115610ee857610ee761187b565b5b6040519080825280601f01601f191660200182016040528015610f1a5781602001600182028036833780820191505090505b5090507f300000000000000000000000000000000000000000000000000000000000000081600081518110610f5257610f51611cc2565b5b60200101907effffffffffffffffffffffffffffffffffffffffffffffffffffffffffffff1916908160001a9053507f780000000000000000000000000000000000000000000000000000000000000081600181518110610fb657610fb5611cc2565b5b60200101907effffffffffffffffffffffffffffffffffffffffffffffffffffffffffffff1916908160001a90535060006001846002610ff69190611c12565b6110009190611c6c565b90505b60018111156110a0577f3031323334353637383961626364656600000000000000000000000000000000600f86166010811061104257611041611cc2565b5b1a60f81b82828151811061105957611058611cc2565b5b60200101907effffffffffffffffffffffffffffffffffffffffffffffffffffffffffffff1916908160001a905350600485901c94508061109990611cf1565b9050611003565b50600084146110e4576040517f08c379a00000000000000000000000000000000000000000000000000000000081526004016110db90611d67565b60405180910390fd5b8091505092915050565b60007f01ffc9a7000000000000000000000000000000000000000000000000000000007bffffffffffffffffffffffffffffffffffffffffffffffffffffffff1916827bffffffffffffffffffffffffffffffffffffffffffffffffffffffff1916149050919050565b6111698161116461124c565b611359565b50565b6111768282610d8e565b61124857600160008084815260200190815260200160002060000160008373ffffffffffffffffffffffffffffffffffffffff1673ffffffffffffffffffffffffffffffffffffffff16815260200190815260200160002060006101000a81548160ff0219169083151502179055506111ed61124c565b73ffffffffffffffffffffffffffffffffffffffff168173ffffffffffffffffffffffffffffffffffffffff16837f2f8788117e7eff1d82e926ec794901d17c78024a50270940304540a733656f0d60405160405180910390a45b5050565b600033905090565b61125e8282610d8e565b1561133157600080600084815260200190815260200160002060000160008373ffffffffffffffffffffffffffffffffffffffff1673ffffffffffffffffffffffffffffffffffffffff16815260200190815260200160002060006101000a81548160ff0219169083151502179055506112d661124c565b73ffffffffffffffffffffffffffffffffffffffff168173ffffffffffffffffffffffffffffffffffffffff16837ff6391f5c32d9c69d2a47ea670b442974b53935d1edc7fd64eb21e047a839171b60405160405180910390a45b5050565b600081600001549050919050565b6001816000016000828254019250508190555050565b6113638282610d8e565b6113f2576113888173ffffffffffffffffffffffffffffffffffffffff166014610eb2565b6113968360001c6020610eb2565b6040516020016113a7929190611e5b565b6040516020818303038152906040526040517f08c379a00000000000000000000000000000000000000000000000000000000081526004016113e99190611e95565b60405180910390fd5b5050565b82805461140290611a1e565b90600052602060002090601f016020900481019282611424576000855561146b565b82601f1061143d57805160ff191683800117855561146b565b8280016001018555821561146b579182015b8281111561146a57825182559160200191906001019061144f565b5b509050611478919061147c565b5090565b5b8082111561149557600081600090555060010161147d565b5090565b6000604051905090565b600080fd5b600080fd5b60007fffffffff0000000000000000000000000000000000000000000000000000000082169050919050565b6114e2816114ad565b81146114ed57600080fd5b50565b6000813590506114ff816114d9565b92915050565b60006020828403121561151b5761151a6114a3565b5b6000611529848285016114f0565b91505092915050565b60008115159050919050565b61154781611532565b82525050565b6000602082019050611562600083018461153e565b92915050565b6000819050919050565b61157b81611568565b82525050565b60006020820190506115966000830184611572565b92915050565b6115a581611568565b81146115b057600080fd5b50565b6000813590506115c28161159c565b92915050565b6000602082840312156115de576115dd6114a3565b5b60006115ec848285016115b3565b91505092915050565b600073ffffffffffffffffffffffffffffffffffffffff82169050919050565b6000611620826115f5565b9050919050565b61163081611615565b82525050565b600081519050919050565b600082825260208201905092915050565b60005b83811015611670578082015181840152602081019050611655565b8381111561167f576000848401525b50505050565b6000601f19601f8301169050919050565b60006116a182611636565b6116ab8185611641565b93506116bb818560208601611652565b6116c481611685565b840191505092915050565b600060a0820190506116e46000830188611572565b6116f16020830187611627565b81810360408301526117038186611696565b9050611712606083018561153e565b81810360808301526117248184611696565b90509695505050505050565b6000819050919050565b61174381611730565b82525050565b600060208201905061175e600083018461173a565b92915050565b61176d81611730565b811461177857600080fd5b50565b60008135905061178a81611764565b92915050565b6000602082840312156117a6576117a56114a3565b5b60006117b48482850161177b565b91505092915050565b6117c681611615565b81146117d157600080fd5b50565b6000813590506117e3816117bd565b92915050565b6000602082840312156117ff576117fe6114a3565b5b600061180d848285016117d4565b91505092915050565b6000806040838503121561182d5761182c6114a3565b5b600061183b8582860161177b565b925050602061184c858286016117d4565b9150509250929050565b600060208201905061186b6000830184611627565b92915050565b600080fd5b600080fd5b7f4e487b7100000000000000000000000000000000000000000000000000000000600052604160045260246000fd5b6118b382611685565b810181811067ffffffffffffffff821117156118d2576118d161187b565b5b80604052505050565b60006118e5611499565b90506118f182826118aa565b919050565b600067ffffffffffffffff8211156119115761191061187b565b5b61191a82611685565b9050602081019050919050565b82818337600083830152505050565b6000611949611944846118f6565b6118db565b90508281526020810184848401111561196557611964611876565b5b611970848285611927565b509392505050565b600082601f83011261198d5761198c611871565b5b813561199d848260208601611936565b91505092915050565b6000602082840312156119bc576119bb6114a3565b5b600082013567ffffffffffffffff8111156119da576119d96114a8565b5b6119e684828501611978565b91505092915050565b7f4e487b7100000000000000000000000000000000000000000000000000000000600052602260045260246000fd5b60006002820490506001821680611a3657607f821691505b60208210811415611a4a57611a496119ef565b5b50919050565b7f416363657373436f6e74726f6c3a2063616e206f6e6c792072656e6f756e636560008201527f20726f6c657320666f722073656c660000000000000000000000000000000000602082015250565b6000611aac602f83611641565b9150611ab782611a50565b604082019050919050565b60006020820190508181036000830152611adb81611a9f565b9050919050565b7f6572726f72000000000000000000000000000000000000000000000000000000600082015250565b6000611b18600583611641565b9150611b2382611ae2565b602082019050919050565b60006020820190508181036000830152611b4781611b0b565b9050919050565b7f546865207072696365206973206e6f742076616c696400000000000000000000600082015250565b6000611b84601683611641565b9150611b8f82611b4e565b602082019050919050565b60006020820190508181036000830152611bb381611b77565b9050919050565b6000604082019050611bcf6000830185611572565b611bdc6020830184611572565b9392505050565b7f4e487b7100000000000000000000000000000000000000000000000000000000600052601160045260246000fd5b6000611c1d82611568565b9150611c2883611568565b9250817fffffffffffffffffffffffffffffffffffffffffffffffffffffffffffffffff0483118215151615611c6157611c60611be3565b5b828202905092915050565b6000611c7782611568565b9150611c8283611568565b9250827fffffffffffffffffffffffffffffffffffffffffffffffffffffffffffffffff03821115611cb757611cb6611be3565b5b828201905092915050565b7f4e487b7100000000000000000000000000000000000000000000000000000000600052603260045260246000fd5b6000611cfc82611568565b91506000821415611d1057611d0f611be3565b5b600182039050919050565b7f537472696e67733a20686578206c656e67746820696e73756666696369656e74600082015250565b6000611d51602083611641565b9150611d5c82611d1b565b602082019050919050565b60006020820190508181036000830152611d8081611d44565b9050919050565b600081905092915050565b7f416363657373436f6e74726f6c3a206163636f756e7420000000000000000000600082015250565b6000611dc8601783611d87565b9150611dd382611d92565b601782019050919050565b6000611de982611636565b611df38185611d87565b9350611e03818560208601611652565b80840191505092915050565b7f206973206d697373696e6720726f6c6520000000000000000000000000000000600082015250565b6000611e45601183611d87565b9150611e5082611e0f565b601182019050919050565b6000611e6682611dbb565b9150611e728285611dde565b9150611e7d82611e38565b9150611e898284611dde565b91508190509392505050565b60006020820190508181036000830152611eaf8184611696565b90509291505056fe5468697320697320746865206465736372697074696f6e206f662073696d706c652070726f6a656374a264697066735822122007d3e3e52c58d8a1b9d5fca64b287218749613be31aff49197e51b4d0a2350f864736f6c63430008090033",
  "linkReferences": {},
  "deployedLinkReferences": {}
}